:100000000C9479000C94A1000C94A1000C94A10014
:100010000C94A1000C94A1000C94A1000C94A100DC
:100020000C94A1000C94A1000C94A1000C94A100CC
:100030000C94A1000C94A1000C94A1000C94A100BC
:100040000C949F0C0C94A1000C94E9070C94C3072A
:100050000C94A1000C94A1000C94A1000C94A1009C
:100060000C9485020C94A100005EBCE2613FDD832C
:10007000C29C7E20A3FD1F41009D23BE46DB65F888
:100080008C11AF32CA57E9741F1C1F1E1F1E1F1F81
:100090001E1F1E000000002300260029000102048C
:1000A00008102040800102040810200102040810FA
:1000B0002000000000250028002B00040404040494
:1000C0000404040202020202020303030303030006
:1000D000000000240027002A0000000008000201A0
:1000E00000000304070000000000000000001512DB
:1000F000E90C11241FBECFEFD8E0DEBFCDBF23E057
:10010000A2EAB1E001C01D92A43CB207E1F711E000
:10011000A0E0B1E0E2EDFDE202C005900D92A23A4E
:10012000B107D9F710E0C8E7D0E004C02197FE017D
:100130000E940815C737D107C9F70E94F90C0C9423
:10014000DC160C940000FC01538D448D252F30E00B
:10015000842F90E0821B930B541710F0CF960895D4
:1001600001970895FC01918D828D981761F0828D21
:10017000DF01A80FB11D5D968C91928D9F5F9F73DB
:10018000928F90E008958FEF9FEF0895FC01918D7D
:10019000828D981731F0828DE80FF11D858D90E0EA
:1001A00008958FEF9FEF0895FC01918D228D892F87
:1001B00090E0805C9F4F821B91098F73992708956F
:1001C00080E090E0892B29F00E94B90781110C94FE
:1001D0000000089585ED8093BC008091BC0084FDF3
:1001E000FCCF1092350208954091C201262F30E0D5
:1001F000240F311D21323105DCF4209135022430E9
:10020000C9F4FC0180E090E0861758F43091C201F7
:100210002191DC01AE55BE4FA30FB11D2C93019669
:10022000F3CF8091C201680F6093C20180E008950E
:1002300081E0089582E00895089508950895E09179
:100240000E0280910D02E81730F4F0E0EB51FE4F02
:10025000808190E008958FEF9FEF089590910E02B6
:1002600080910D02981750F4E92FF0E0EB51FE4F0A
:10027000208130E09F5F90930E0202C02FEF3FEF8E
:10028000C901089580910D0290E020910E02821B19
:1002900091090895CF92DF92EF92FF920F931F93EF
:1002A000CF93DF937C01CB018A0120913602222378
:1002B00089F0EB016B01C40ED51ECC15DD0569F08C
:1002C0006991D701ED91FC910190F081E02DC7017A
:1002D0000995F3CF642F0E94F400C801DF91CF91FC
:1002E0001F910F91FF90EF90DF90CF900895CF93E3
:1002F000DF931F92CDB7DEB76983209136022223A8
:10030000D1F020915902203240F021E030E0FC0190
:100310003383228380E090E015C080913702E82F7C
:10032000F0E0E85CFD4F998190838F5F8093370206
:100330008093590205C061E0CE0101960E94F4004D
:1003400081E090E00F90DF91CF910895089580E0D3
:1003500090E00895FC01848DDF01A80FB11DA35A20
:10036000BF4F2C91848D90E001968F739927848FD5
:10037000A689B7892C93A089B1898C9183708064F8
:100380008C93938D848D981306C00288F389E02D99
:1003900080818F7D80830895EF92FF920F931F934A
:1003A000CF93DF93EC0181E0888F9B8D8C8D981328
:1003B00005C0E889F989808185FD26C0F62E0B8D60
:1003C00010E00F5F1F4F0F731127E02E8C8DE81286
:1003D0000CC00FB607FCFACFE889F989808185FF48
:1003E000F5CFCE010E94AA01F1CF8B8DFE01E80F5F
:1003F000F11DE35AFF4FF0829FB7F8940B8FEA8903
:10040000FB89808180620AC09FB7F894EE89FF89DA
:100410006083E889F98980818370806480839FBFCD
:1004200081E090E0DF91CF911F910F91FF90EF90CD
:100430000895CF93DF93EC01888D8823C9F0EA8972
:10044000FB89808185FD05C0A889B9898C9186FDCD
:100450000FC00FB607FCF5CF808185FFF2CFA889CA
:10046000B9898C9185FFEDCFCE010E94AA01E7CF1B
:10047000DF91CF910895FC01248131E03093360261
:100480002093580210923702109259028485682BEB
:100490008AEF92E00E94770181E00C949E090F930D
:1004A0001F93CF938C01C62F0E943B026C2F646078
:1004B000C8010E943B026C2F6B7FC8010E943B0267
:1004C00083EC90E00197F1F7CF911F910F91089580
:1004D0000F931F93CF93DF938C01C62FD42F607F90
:1004E000642B0E944F0280E1C89FB00111246D2B44
:1004F000C801DF91CF911F910F910C944F0241E001
:100500000E94680281E090E008951F920F920FB65A
:100510000F9211242F933F934F935F936F937F9389
:100520008F939F93AF93BF93EF93FF938091B90005
:10053000887F803609F49CC068F5883209F45BC076
:1005400090F4803109F454C038F4882309F4F6C0DB
:10055000883009F44DC0F6C0883109F44CC08032AF
:1005600009F45DC0EFC0803409F468C048F48033FA
:1005700009F455C0883309F0E5C080933302D8C030
:10058000803509F44FC0883509F45DC0883409F01E
:10059000D9C0D6C0883909F4C7C0A8F4883709F48F
:1005A00067C038F4883609F463C0803709F460C046
:1005B000C9C0883809F4B8C0803909F45FC08038F0
:1005C00009F0C0C05BC0803B09F486C038F4803AB3
:1005D00009F466C0883A09F47FC0B4C0803C09F4CD
:1005E000A7C0883C09F4A4C0883B09F48AC0AAC00B
:1005F0008091100210C090913202809131029817C0
:1006000070F5E091320281E08E0F80933202F0E0CB
:10061000EF5EFD4F80818093BB0085EC86C08093A8
:1006200033028EC0E091320281E08E0F809332025D
:100630008091BB00F0E0EF5EFD4F8083909132022D
:10064000809131026EC0E091320281E08E0F809382
:1006500032028091BB00F0E0EF5EFD4F808380911D
:10066000340281116DC081E080930F0284EA61C081
:1006700083E0809335021092E401CFCF8091E401B2
:10068000803208F051C0E091E40181E08E0F809348
:10069000E4018091BB00F0E0EC53FE4F8083BDCFBE
:1006A00085EC8093BC00109235028091E401803289
:1006B00030F4E091E401F0E0EC53FE4F10826091E1
:1006C000E40170E0E0910902F0910A0284EC91E00B
:1006D00009951092E40136C084E0809335021092AF
:1006E000C3011092C201E0910B02F0910C02099536
:1006F0008091C201811105C081E08093C2011092F6
:10070000A201E091C30181E08E0F8093C301F0E06C
:10071000EE55FE4F80818093BB009091C301809184
:10072000C201981708F479CF85E88093BC000AC00D
:1007300085EC8093BC001092350204C01092330205
:100740000E94EA00FF91EF91BF91AF919F918F912D
:100750007F916F915F914F913F912F910F900FBEBD
:100760000F901F901895DC0180E0615098F02D915A
:10077000982F9227E92FEF70F0E0E859FF4F24916E
:1007800092959F70E92FF0E0E858FF4FE491822F97
:100790008E27EBCF0895FC0190810180F281E02D3E
:1007A000F8948181892B81832281892F8095282348
:1007B0002283A7E0B0E01197F1F7218182238183A2
:1007C000A3E2B0E01197F1F780817894EFECF0E0CC
:1007D0003197F1F7982381E009F480E00895FC0156
:1007E00090810180F281E02D892F809560FF12C0F9
:1007F000F8942281822382838181892B8183A3E2E1
:10080000B0E01197F1F78281982B9283789487ED6D
:1008100090E011C0F8942281822382838181892B08
:100820008183AFEFB0E01197F1F78281982B92832B
:1008300078948FE090E00197F1F70895DF92EF92BE
:10084000FF920F931F93CF93DF93EC01D62EE42EEC
:1008500008E010E0FF24F39461E08D2D8F2109F46E
:1008600060E0CE010E94EF03FF0C01501109A1F7D7
:10087000E11010C0F894E981FA8191818881809516
:1008800089238183E981FA819281888180958923F6
:1008900082837894DF91CF911F910F91FF90EF9019
:1008A000DF900895EF92FF920F931F93CF93DF9302
:1008B0008C017B0140E065E50E941E04E70188E0B1
:1008C000E80EF11C699140E0C8010E941E04CE159B
:1008D000DF05C1F7DF91CF911F910F91FF90EF904E
:1008E0000895DC012C911196ED91FC911297F894EA
:1008F0008181922F90958923818378948DE743E0BD
:1009000050E0815021F1DA011197F1F73081322363
:10091000C1F3F8948281892382838181822B818330
:100920007894ABE7B7E01197F1F7F89481819823B9
:10093000918383E191E00197F1F78081282381E0A1
:1009400009F080E07894E3E6F6E03197F1F7089556
:100950008F929F92AF92BF92CF92DF92EF92FF92CF
:100960000F931F93CF93DF93EC018E85882319F0AB
:100970000E94930C02C00E94340C88809980AA8047
:10098000BB80CC80DD80EE80FF808B019C0108194C
:1009900019092A093B090C151D052E053F05F8F01C
:1009A0004C854423C9F08B019C010C191D092E09AB
:1009B0003F098C0C9D1CAE1CBF1C8C149D04AE0406
:1009C000BF0428F080169106A206B30690F3888231
:1009D0009982AA82BB8204C01D8641E001C040E02A
:1009E000842FDF91CF911F910F91FF90EF90DF90B7
:1009F000CF90BF90AF909F908F900895CF93DF934B
:100A0000EC018E85882319F00E94930C02C00E948D
:100A1000340C688379838A839B83DF91CF91089517
:100A2000AF92BF92CF92DF92EF92FF920F931F93FC
:100A3000CF93DF93CDB7DEB761970FB6F894DEBFE3
:100A40000FBECDBF80911903811107C081E0809353
:100A500019038CE093E00E94FE048091190388231F
:100A600009F458C18CE093E00E94A804882309F49B
:100A700051C10E94290A60E080E00E94FA0982E5E3
:100A800091E00E943C0A809108030E947F0A86E55B
:100A900091E00E943C0A809107030E947F0A88E54A
:100AA00091E00E943C0A809109030E947F0A8BE535
:100AB00091E00E943C0A80910A030E947F0A61E053
:100AC00080E00E94FA098DE591E00E943C0A809145
:100AD0007603909177030E94710440E06CEC809162
:100AE0007603909177030E941E0440916D0364E4A5
:100AF00080917603909177030E941E048091710388
:100B0000882309F44BC0E09170038091720388231D
:100B1000F1F080916D0381111AC00E94930C6B015A
:100B20007C0180917603909177030E94CB03813002
:100B3000A9F10E94930CDC01CB018C199D09AE092F
:100B4000BF098E3E9240A105B10558F327C0E95078
:100B5000E33040F4F0E0EE0FFF1FEC5EFE4F8081CB
:100B6000918102C08EEE92E06C01990FEE08FF08B1
:100B700080916E03882329F060E080916F030E94CA
:100B8000AB0BC701B6010E94590C80916E038823FC
:100B900029F061E080916F030E94AB0BE091760336
:100BA000F0917703138615861486DF011B96CF011B
:100BB00003961E92A817B907E1F7BE01665F7F4F43
:100BC000CF010E94290B882309F465C067E0CE019C
:100BD0000A960E94B303998989135DC0BE016F5FB5
:100BE0007F4FCE010A960E94B80A882309F48FC06D
:100BF0002A8130E0C901982F8827990F990F990F02
:100C0000698148E0649FB00111249C01262B372B99
:100C10008A858031D9F468856623C1F070E08F81C0
:100C2000AB01481B5109CA019695982F88279795C3
:100C300087950E94D21460527109207F53E0220FE1
:100C4000331F5A95E1F7620F731F01C0B901613874
:100C500054EE750704F1072E000C880B990B0E94C7
:100C6000A11320E030E040E05CE30E9400146B013F
:100C70007C015B018C0120E030E0A9010E94B115EC
:100C800087FD0DC020E030E040E05FE3B601C70122
:100C90000E940F150CC0A12CB12C0EEF12EC20E01D
:100CA00030E040E05FE3B501C8010E940E150E94EC
:100CB0007B156B01770FEE08FF08F7FE0FC041E0D0
:100CC0006DE280E693E00E94680266277727CB01F9
:100CD0006C197D098E099F094AE003C04AE0C701EB
:100CE000B6010E943E0A83E691E00E943C0A809190
:100CF000050290910602009729F0029759F48FE6B9
:100D000091E002C087E691E00E943C0A03C060E8DF
:100D100074EE9DCF61960FB6F894DEBF0FBECDBFC7
:100D2000DF91CF911F910F91FF90EF90DF90CF90C7
:100D3000BF90AF900895CF92DF92EF92FF920F9302
:100D40001F93CF93DF93EC01898182FD13C085FD52
:100D500011C0EC89FD8920819E8981FB332730F900
:100D600083FB882780F98327292391E009F090E00D
:100D700089278A8B0E94930CAB01BC019A892B892D
:100D80008881992301F121111EC080FD02C081607C
:100D90005CC00E851F85288939896A017B01C01ACC
:100DA000D10AE20AF30A0B811C8120E030E0C01670
:100DB000D106E206F30608F44DC091E09B8B8062F9
:100DC0008068888328C08E7F888391111FC022236A
:100DD00009F440C01B8A81FD03C08B858F5F8B8720
:100DE00088818D7F806188834E875F87688B798B50
:100DF00086FF04C01C861B868F7B8883888187FFC3
:100E000029C08F7788838981816089838B89882332
:100E100009F19923F9F08E859F85A889B9898A01FE
:100E20009B01081B190B2A0B3B0B8D819E81A0E0B7
:100E3000B0E0081719072A073B0760F0888181FD99
:100E400009C09B859D878A648F7788834E875F87DB
:100E5000688B798B8E859F85A889B989481B590B2A
:100E60006A0B7B0B8F819885A0E0B0E0481759078B
:100E70006A077B0740F08B85882329F08C871B86C7
:100E8000888184608883DF91CF911F910F91FF90BB
:100E9000EF90DF90CF900895CF93DF93EC0189819D
:100EA00084FF03C0CE010E949B06988192FB882795
:100EB00080F992FF08C02C85223021F49B7F988313
:100EC0001C8601C080E0DF91CF910895CF93DF931E
:100ED000EC01898184FF03C0CE010E949B069981A9
:100EE000892F817090FF02C09E7F9983DF91CF91FF
:100EF0000895CF93DF93EC01898184FF03C0CE0175
:100F00000E949B06988195FB882780F995FF02C077
:100F10009F7D9883DF91CF910895CF92DF92EF92DA
:100F2000FF920F931F93CF93DF936C017A018B0194
:100F3000C0E0D0E0CE15DF0581F0D8016D918D01C4
:100F4000D601ED91FC910190F081E02DC60109954B
:100F5000892B11F02196EECF7E01C701DF91CF9151
:100F60001F910F91FF90EF90DF90CF9008950E9416
:100F7000D7168DE592E00E94D40021E0892B09F478
:100F800020E0822F08951F920F920FB60F92112426
:100F90002F933F934F935F936F937F938F939F9381
:100FA000AF93BF93EF93FF938DE592E00E94AA0168
:100FB000FF91EF91BF91AF919F918F917F916F9131
:100FC0005F914F913F912F910F900FBE0F901F9007
:100FD00018951F920F920FB60F9211242F938F9393
:100FE0009F93EF93FF93E0916D02F0916E028081E9
:100FF000E0917302F091740282FD12C090818091A1
:1010000076028F5F8F7320917702821751F0E09103
:101010007602F0E0E35AFD4F958F8093760201C08F
:101020008081FF91EF919F918F912F910F900FBE33
:101030000F901F901895009769F0FC010190002017
:10104000E9F73197AF01481B590BBC0180E693E0EB
:101050000C948D0780E090E00895CF92DF92EF929C
:10106000FF920F931F93CF93DF93CDB7DEB72997EE
:101070000FB6F894DEBF0FBECDBF80919C03909158
:101080009D03892B09F4BBC0C090A203D090A30399
:10109000E090A403F090A5030E94340C6C157D052C
:1010A0008E059F0550F40E94340C6093A203709348
:1010B000A3038093A4039093A5030E94340C009192
:1010C000A2031091A3032091A4033091A503DC0196
:1010D000CB01801B910BA20BB30B8C329140A1056D
:1010E000B10590F2F89480919703909198039A83B8
:1010F0008983E0919C03F0919D03DF01119680812B
:10110000898790919303E091A603F091A7038091C2
:10111000A803992309F42EC09081982B9887908179
:10112000809589238F838F818C8388E08B8358857A
:101130006F8149853B812C8189819A81508347FD4C
:10114000252F3A952083262F39F0441F00C0000038
:101150006083000000C0F2CF38E04D916083000052
:10116000019761F7F093A703E093A60349873B83B8
:101170002C8338C09081982B988790818095892303
:101180008F838F818E8388E08D8358856F81498519
:101190003D812E8189819A81508347FD252F00C092
:1011A00000C0208300C000C000C000C000C0608339
:1011B0000000262F3A9541F0441F000000C000C0F7
:1011C00000C000C000C0E8CF38E04D9100C060838F
:1011D00000C0019709F7F093A703E093A60349879E
:1011E0003D832E839A83898378940E94340C609384
:1011F000A2037093A3038093A4039093A50329965D
:101200000FB6F894DEBF0FBECDBFDF91CF911F9117
:101210000F91FF90EF90DF90CF9008958F929F9263
:10122000AF92BF92CF92DF92EF92FF92CF93DF9374
:1012300020919503309196038217930708F057C0C9
:101240004B01AA24BB24F82DC52ED62EE72EFF2451
:10125000AC2DE42F20919B03222361F0829E40015C
:101260001124F92D2C9D60011124AD2D249FE00146
:101270001124ED2F3091A103B0919E03E0909C03C7
:10128000F0909D033B1308C09C01220F331F820F77
:10129000931F8E0D9F1D19C0880F991F880F991FCE
:1012A0008E0D9F1D472F552766277727EC01C30F0B
:1012B000D11D222349F030E0249F7001259FF00CBE
:1012C000349FF00C11244F2D488320919E03EC0194
:1012D000C20FD11DF88320919F03EC01C20FD11DD5
:1012E000A8832091A003DC01A20FB11DEC93DF9134
:1012F000CF91FF90EF90DF90CF90BF90AF909F90F5
:101300008F900895CF93DF93CEE1D0E080915A0281
:1013100040915B0250E060E070E0762F652F542F23
:101320004427682B80915C02482BCE010E940E0955
:10133000219760F7DF91CF910C942D08282F3091E1
:101340005902313208F04AC0809135028111FCCF38
:101350009091580242E040933502209334022FEFDF
:10136000209333021092320230933102E8E3F2E02C
:10137000A1E1B2E020E0321721F041914D932F5FBF
:10138000FACF1092100220911002990F922B909395
:10139000100290910F02913061F410920F0290911F
:1013A00010029093BB009091BC0093FDF8CF95EC98
:1013B00001C095EE9093BC00909135029230E1F31C
:1013C000909133029F3F79F080913302803241F057
:1013D00080913302803331F084E005C081E003C0A6
:1013E00082E001C083E010923702109259021092FD
:1013F00036020895CF93DF93CDB7DEB728970FB6A7
:10140000F894DEBF0FBECDBF98E0EAE1F1E0DE0167
:10141000119601900D929A95E1F7909168039617B5
:1014200010F46FEF690FFE013196E60FF11DE60F24
:10143000F11D6081680F606840E080E693E02896C7
:101440000FB6F894DEBF0FBECDBFDF91CF910C94E5
:10145000680240E061E080E693E00E9468028BE36E
:101460009FE10197F1F780916903882321F060E003
:1014700080E00C94FA0908950C941B088F929F92B7
:10148000AF92BF920F931F93CF93DF93CDB7DEB789
:10149000A1970FB6F894DEBF0FBECDBF19A24230A0
:1014A00008F44AE08E010F5D1F4F842E912CA12C71
:1014B000B12CA50194010E94E614E62FB901CA01DE
:1014C00001501109EA3014F4E05D01C0E95CD80173
:1014D000EC93232B242B252B61F7C8010E941B08BA
:1014E000A1960FB6F894DEBF0FBECDBFDF91CF91AE
:1014F0001F910F91BF90AF909F908F900895682F8C
:1015000070E080E090E04AE00C943E0A10920E02F7
:1015100010920D0210923702109259021092350269
:1015200081E08093340210920F0261E082E10E9418
:10153000AB0B61E083E10E94AB0BE9EBF0E0808153
:101540008E7F808380818D7F808388E48093B80044
:1015500085E48093BC008CE191E090930C02809331
:101560000B028DE191E090930A02809309020895A5
:101570006F927F928F929F92AF92BF92CF92DF92A3
:10158000EF92FF920F931F93CF93DF938C01EB01A8
:1015900080917603909177030E947104882309F467
:1015A00047C0B80180917603909177030E9452045E
:1015B00040E06EEB80917603909177030E941E04C9
:1015C0008E016E0189E0C80ED11C7E01A0907603C9
:1015D000B090770388E0882E912C712C6624639458
:1015E000C5010E94CB0381117628660CE1E08E1ABA
:1015F0009108B1F7F70171927F01CE16DF0631F73E
:1016000080917603909177030E947104813081F478
:10161000F80181918F01811104C0EC15FD05C1F71E
:1016200007C068E0CE010E94B30391E0288528132B
:1016300090E0892FDF91CF911F910F91FF90EF9054
:10164000DF90CF90BF90AF909F908F907F906F90E2
:101650000895BF92CF92DF92EF92FF920F931F9364
:10166000CF93DF93EC016B018D85811105C0CE0115
:101670000E947104811105C01B861D861C8680E0B6
:1016800060C040E060EFCE010E941E0401E0E12C4A
:10169000B12C11E0CE010E94CB03F82ECE010E94A6
:1016A000CB0391E0F91203C08130B1F434C02E2D88
:1016B00030E0F8121BC08B85181738F4FE01E20FDA
:1016C000F31F8381802341F402C0811729F0F12C9C
:1016D000193058F41C8709C0FE01EE0DF11D8381FD
:1016E000802B8383FF24F39409C0B12EFE01E20F07
:1016F000F31F9381802F8095892383836F2DCE01E3
:101700000E94EF031F5F000F11F4E39401E087E0F4
:101710008E1508F0BFCF113408F4AECFBB86B110E0
:1017200002C081E08D878B81882309F4A5CFDE017B
:101730001396F6012B968D918193CA17DB07D9F783
:1017400081E0DF91CF911F910F91FF90EF90DF909B
:10175000CF90BF90089590E0FC01E752FF4F249195
:10176000FC01E356FF4F3491FC01E554FF4FE49137
:10177000EE2309F43CC0222339F1233091F038F4F0
:101780002130A9F0223001F584B58F7D12C02730B9
:1017900091F02830A1F02430B9F4809180008F7D41
:1017A00003C0809180008F77809380000DC084B546
:1017B0008F7784BD09C08091B0008F7703C080917E
:1017C000B0008F7D8093B000F0E0EE0FFF1FEF546C
:1017D000FF4FA591B4919FB7F894611104C08C910B
:1017E0003095382302C0EC913E2B3C939FBF089567
:1017F000CF93DF9390E0FC01E356FF4F2491FC016F
:10180000E554FF4F8491882361F190E0880F991F80
:10181000FC01E153FF4FC591D491FC01EF54FF4F00
:10182000A591B491611109C09FB7F8948881209562
:1018300082238883EC912E230BC0623061F49FB722
:10184000F8948881322F309583238883EC912E2B56
:101850002C939FBF06C08FB7F894E8812E2B288366
:101860008FBFDF91CF9108953FB7F8948091BC036B
:101870009091BD03A091BE03B091BF0326B5A89B74
:1018800005C02F3F19F00196A11DB11D3FBFBA2F12
:10189000A92F982F8827820F911DA11DB11DBC0172
:1018A000CD0142E0660F771F881F991F4A95D1F737
:1018B00008958F929F92AF92BF92CF92DF92EF9254
:1018C000FF926B017C010E94340C4B015C01C1143E
:1018D000D104E104F104F1F00E94340CDC01CB01ED
:1018E00088199909AA09BB09883E9340A105B10549
:1018F00070F321E0C21AD108E108F10888EE880EE1
:1019000083E0981EA11CB11CC114D104E104F104B0
:1019100019F7DDCFFF90EF90DF90CF90BF90AF90A1
:101920009F908F9008952FB7F8946091B8037091AD
:10193000B9038091BA039091BB032FBF08951F9202
:101940000F920FB60F9211242F933F938F939F9373
:10195000AF93BF938091B8039091B903A091BA035C
:10196000B091BB033091B70323E0230F2D3720F450
:101970000196A11DB11D05C026E8230F0296A11DE9
:10198000B11D2093B7038093B8039093B903A0933C
:10199000BA03B093BB038091BC039091BD03A091A7
:1019A000BE03B091BF030196A11DB11D8093BC037E
:1019B0009093BD03A093BE03B093BF03BF91AF91BB
:1019C0009F918F913F912F910F900FBE0F901F907D
:1019D000189580919C0390919D030E944E168091D2
:1019E000990390919A0397FD03C060E00C94F80B63
:1019F0000895CF93DF93CDB7DEB761970FB6F89414
:101A0000DEBF0FBECDBF789484B5826084BD84B53F
:101A1000816084BD85B5826085BD85B5816085BDE9
:101A200080916E00816080936E00109281008091A1
:101A30008100826080938100809181008160809329
:101A40008100809180008160809380008091B1004E
:101A500084608093B1008091B00081608093B00079
:101A600080917A00846080937A0080917A0082600D
:101A700080937A0080917A00816080937A008091CF
:101A80007A00806880937A001092C100E0916D0224
:101A9000F0916E0282E08083E0916902F0916A0227
:101AA0001082E0916B02F0916C028FEC80831092B7
:101AB0007502E0917102F091720286E08083E091FC
:101AC0006F02F0917002808180618083E0916F02EB
:101AD000F0917002808188608083E0916F02F091C4
:101AE0007002808180688083E0916F02F0917002C3
:101AF00080818F7D808360E081E10E94F80B0E94ED
:101B0000860A1092650380916B03823018F098E08A
:101B1000909365038093680362E370E080E090E057
:101B20000E94590C60916C0380E693E00E943B0296
:101B300068EE73E080E090E00E94590C60E380E67C
:101B400093E00E944F020BE416E4C8010197F1F7FD
:101B500060E380E693E00E944F02C8010197F1F72D
:101B600060E380E693E00E944F0283E592E00197F4
:101B7000F1F760E280E693E00E944F026091650316
:101B8000606240E080E693E00E94680284E0809317
:101B9000660340E06CE080E693E00E9468020E94E9
:101BA000290A82E08093670340E066E080E693E0E4
:101BB0000E94680240E062E080E693E00E946802D2
:101BC0008BE39FE10197F1F788E080936C0360E07D
:101BD00080E693E00E943B0285E791E00E943C0A88
:101BE00061E080E00E94FA0984E891E00E943C0AEA
:101BF00040E068E480E693E00E94680200E011E0C3
:101C0000F80161918F0180E693E00E947F02F1E08C
:101C100008301F07A9F7E0917603F0917703138648
:101C200015861486DF011B9633961E92AE17BF07EA
:101C3000E1F7109274031092750311E0BE01665F24
:101C40007F4F80917603909177030E94290B882320
:101C5000F1F067E0CE010A960E94B30399898913D7
:101C6000EDCF809174038F5F809374038A858832EF
:101C700009F42EC330F4803109F42AC38232F1F61C
:101C800027C38B3309F424C38234C1F621C30E94D5
:101C9000860A0E94860A81E08093360288E6809355
:101CA0005802109237021092590281E00E949E0958
:101CB0008091990390919A0397FD08C061E00E947A
:101CC000F80B60E0809199030E94AB0B81E0809358
:101CD000940300E010E048E557EC60E370E0C801D1
:101CE0000E940E090E942D086AE070E080E090E0FA
:101CF0000E94590C0F5F1F4F0E31110561F70EE165
:101D000010E040E050E0BA01C8010E940E090E94B4
:101D10002D086AE070E080E090E00E94590C0150CC
:101D2000110978F7F3E06F2E712CEE24E394F12C77
:101D300002E010E03324339455245A94BAEF4B2E2A
:101D400088E5282E89E493E00E949B0682E393E0D5
:101D50000E949B068BE193E00E949B0689E493E03E
:101D60000E946607882329F010920D0110920C0141
:101D70001AC089E493E00E944C07882329F010934D
:101D80000D0100930C010FC089E493E00E947907D4
:101D9000882329F0F0920D01E0920C0104C07092AA
:101DA0000D0160920C0182E393E00E946607882394
:101DB00029F010920901109208011AC082E393E001
:101DC0000E944C07882329F0109309010093080111
:101DD0000FC082E393E00E947907882329F0F092F4
:101DE0000901E092080104C07092090160920801A3
:101DF0008BE193E00E946607882329F010920B0183
:101E000010920A011AC08BE193E00E944C078823CC
:101E100029F010930B0100930A010FC08BE193E0AE
:101E20000E947907882329F0F0920B01E0920A01C1
:101E300004C070920B0160920A013092360288E66B
:101E400080935802109237021092590260E08AEF94
:101E500092E00E94770181E00E949E098091350204
:101E60008111FCCF3092350230923402509233020D
:101E700010923202E6E0E09331023092100280913B
:101E80001002806D8093100280910F02813071F4F6
:101E900010920F02809110028093BB008091BC00D1
:101EA00083FDF8CFF5ECF093BC0003C025EE209342
:101EB000BC00809135028130E1F38091320287309D
:101EC00018F49091320201C097E0E1E1F2E0A5EE52
:101ED000B1E080E0891721F021912D938F5FFACF37
:101EE00010920E0280930D028AEF92E00E942E0162
:101EF0008F77982F92959F70C82E949DC00C1124B7
:101F00008AEF92E00E942E019C01332744E0359530
:101F100027954A95E1F7B82E429EB00C11248AEF1E
:101F200092E00E942E019C01332754E035952795BD
:101F30005A95E1F7D82E429ED00C11248AEF92E0F8
:101F40000E942E018AEF92E00E942E019C0133270D
:101F500064E0359527956A95E1F7A82E429EA00C7E
:101F600011248AEF92E00E942E019C01332774E035
:101F7000359527957A95E1F7982E429E900C11247D
:101F80008AEF92E00E942E019C013327E4E0359510
:101F90002795EA95E1F7429E800D11248093060370
:101FA00090920703A0920803D0920903B0920A030B
:101FB000C0920B038091050290910602E4E1ED15B9
:101FC00008F0E0C1892B21F010930602009305026E
:101FD000C0900502D0900602F1E0CF16D10409F4BA
:101FE000F0C050F082E0C816D10409F45DC1E3E00E
:101FF000CE16D104D9F069C10E94100580910C0160
:1020000090910D018130910561F0029709F0D6C0E1
:1020100050925A0250925B0220925C020E94820906
:10202000CDC09093060280930502C8C00E94290A81
:1020300060E080E00E94FA0982E991E00E943C0A97
:1020400060E085E00E94FA0986E991E00E943C0A7E
:1020500060E08BE00E94FA098CE991E00E943C0A62
:1020600061E080E00E94FA0980915A020E947F0A92
:1020700061E085E00E94FA0980915B020E947F0A7C
:1020800061E08BE00E94FA0980915C020E947F0A65
:1020900080910A0190910B01892B21F58091070213
:1020A0009091080281309105A1F070F08230910585
:1020B000A9F00397B9F41092080210920702109247
:1020C0000602109205020EC0F0920802E09207028A
:1020D00009C0109308020093070204C0D0920802BE
:1020E000C092070280910702909108028130910509
:1020F00031F120F0029709F442C060C080910C01D8
:1021000090910D01892B49F480915A02882311F096
:1021100081500FC050925A0251C080910801909195
:102120000901892B09F04AC080915A028F3F21F0A2
:102130008F5F80935A0242C010925A023FC0809132
:102140000C0190910D01892B49F480915B02882349
:1021500011F081500EC050925B0230C08091080196
:1021600090910901892B51F580915B028F3F21F0FD
:102170008F5F80935B0222C010925B021FC0809130
:102180000C0190910D01892B49F480915C02882308
:1021900011F081500EC050925C0210C08091080175
:1021A00090910901892B51F480915C028F3F21F0BD
:1021B0008F5F80935C0202C010925C020E948209D1
:1021C00084C080910A0190910B01892B21F4109217
:1021D0000602109205020E94100580919103811160
:1021E00006C03092910384E893E00E94FE0480913F
:1021F0009103882309F469C084E893E00E94A8044D
:10220000882309F462C0C12CD12C812C912CA12CE3
:10221000B12C6091950370919603A616B706C8F588
:10222000C4010E94BE146C0D6095653558F4462FAC
:10223000440F640F862F8095462F50E060E070E0D9
:10224000682B1FC06A3A78F46555862F880F860F71
:10225000482F50E060E070E0762F652F542F442720
:102260008095482B0EC06A5A462F440F640F862F64
:102270008095462F50E060E070E0BA015527442772
:10228000582BC5010E940E09FFEFAF1ABF0A9394A5
:10229000C0CF0E942D088FEFC81AD80AC114E5E0FC
:1022A000DE0609F0B2CF11C0C12CD12C40E050E0C5
:1022B000BA01C6010E940E09FFEFCF1ADF0A2EE114
:1022C000C216D10499F70E942D080E94E0003ACD71
:1022D000809175038F5F8093750380916D038111E9
:1022E00026C080917603909177030E947104BE010D
:1022F000665F7F4F80917603909177030E9452042E
:1023000040E064EB80917603909177030E941E0475
:1023100080917603909177030E94CB03082F8091E0
:102320007603909177030E947104002341F18A851E
:102330008031E1F0BE016F5F7F4FCE010A960E94AF
:10234000B80A882389F08D818F3361F020F48F31B2
:1023500059F489E00CC08F3519F08F3739F004C07B
:102360008BE005C08AE003C080E001C08CE0909162
:102370007003981708F062CC809370035FCC1093C1
:102380006D03D5CFE5E0ED1508F022CE029709F0F8
:102390001FCE10920602109205021ACECF93DF9341
:1023A000EC011A828CE390E09C838B8384EF91E0B4
:1023B0009E838D8398878F8380E991E09A878987B0
:1023C0001B861C861D861E861F86188A198A1A8AF5
:1023D0001B8A89816F3F19F06A838F7D01C08062FB
:1023E00089838981877F898385FD18C062E08A811E
:1023F0000E94F80B8A8190E0FC01E554FF4FE491C4
:10240000F0E0EE0FFF1FED56FF4F259134913D8B0D
:102410002C8BFC01E356FF4FE491EE8B89818B7E80
:102420008D7F8983DF91CF910895CF9310926002C1
:1024300010925F0288EE93E0A0E0B0E0809361022A
:1024400090936202A0936302B093640226E231E0AB
:1024500030935E0220935D0225EC30E030936A02F7
:102460002093690224EC30E030936C0220936B02DD
:1024700020EC30E030936E0220936D0221EC30E0CE
:102480003093700220936F0222EC30E0309372029E
:102490002093710226EC30E0309374022093730293
:1024A00010927602109277021092780210927902BE
:1024B0001092FD021092FC028093FE029093FF02A4
:1024C000A0930003B093010388E391E09093FB0293
:1024D0008093FA0260E083E00E94F80BE0EAF0E00B
:1024E000E491E093A903EEEBF0E0E491F0E0EE0F6D
:1024F000FF1FED56FF4F859194919093AB0380930E
:10250000AA031092B4031092B6031092B503E4EB41
:10251000F3E0129283E0EC3AF807D9F710928303C4
:102520001092820310926E0389EA93E090937703EE
:1025300080937603109274031092750310926D03CA
:1025400089E080937003C1E0C0937103C09372036C
:10255000C093730310926303109262038AE491E0C4
:1025600090936103809360031092690387E28093E4
:10257000640380E180936A0382E080936B0310928E
:102580006C0364E089E493E00E94CE1166E082E38C
:1025900093E00E94CE1165E08BE193E00E94CE11A2
:1025A00010920C0310920D0310920E0310920F0361
:1025B0001092140310921503109216031092170331
:1025C000C0931803C0931A0388EE93E0A0E0B0E034
:1025D0008093100390931103A0931203B0931303FD
:1025E000C09319038CE093E00E94FE04C0931A0389
:1025F00010920B0310920A03109209031092060323
:1026000081E08C3071F0E82FF0E0E957FF4FE49162
:10261000823009F4EF5F91E0980FE11102C0892F39
:10262000F0CF8093070381E0809308031092940316
:1026300010929B031092A2031092A3031092A40382
:102640001092A5038093A10380939E0310929F0391
:1026500092E09093A003809393038AE590E0909397
:102660009803809397030E94B61590939D038093DF
:102670009C03009761F02AE5FC0111922A95E9F785
:102680008EE190E0909396038093950308C010929A
:10269000980310929703109296031092950382E08C
:1026A00090E090939A0380939903809194038823F8
:1026B00041F061E082E00E94F80B60E082E00E945D
:1026C000AB0BEDEBF0E0E491F0E0EE0FFF1FEF5409
:1026D000FF4F859194919093A7038093A603EFE910
:1026E000F0E0E491E093A803109284031092850334
:1026F000109286031092870310928C0310928D0320
:1027000010928E0310928F03C1E0C0939003C09388
:10271000920384E690E0A0E0B0E080938803909379
:102720008903A0938A03B0938B03C093910384E839
:1027300093E00E94FE04C0939203CF910895E89421
:1027400009C097FB3EF490958095709561957F4FF9
:102750008F4F9F4F9923A9F0F92F96E9BB279395A7
:10276000F695879577956795B795F111F8CFFAF4B7
:10277000BB0F11F460FF1BC06F5F7F4F8F4F9F4FE8
:1027800016C0882311F096E911C0772321F09EE846
:10279000872F762F05C0662371F096E8862F70E0AC
:1027A00060E02AF09A95660F771F881FDAF7880F86
:1027B0009695879597F90895990F0008550FAA0BDC
:1027C000E0E8FEEF16161706E807F907C0F0121644
:1027D0001306E407F50798F0621B730B840B950B47
:1027E00039F40A2661F0232B242B252B21F408959C
:1027F0000A2609F4A140A6958FEF811D811D089539
:102800000E9413140C9484140E94761438F00E94D1
:102810007D1420F0952311F00C946D140C94731416
:1028200011240C94B8140E94951470F3959FC1F371
:10283000950F50E0551F629FF001729FBB27F00D6E
:10284000B11D639FAA27F00DB11DAA1F649F6627C3
:10285000B00DA11D661F829F2227B00DA11D621F12
:10286000739FB00DA11D621F839FA00D611D221FCC
:10287000749F3327A00D611D231F849F600D211DB0
:10288000822F762F6A2F11249F5750409AF0F1F033
:1028900088234AF0EE0FFF1FBB1F661F771F881F9C
:1028A00091505040A9F79E3F510580F00C946D1453
:1028B0000C94B8145F3FE4F3983ED4F38695779573
:1028C0006795B795F795E7959F5FC1F7FE2B880F42
:1028D000911D9695879597F9089597F99F6780E8D8
:1028E00070E060E008959FEF80EC089500240A9462
:1028F0001616170618060906089500240A941216DB
:102900001306140605060895092E0394000C11F40D
:10291000882352F0BB0F40F4BF2B11F460FF04C0BA
:102920006F5F7F4F8F4F9F4F089557FD9058440F13
:10293000551F59F05F3F71F04795880F97FB991F1E
:1029400061F09F3F79F087950895121613061406DB
:10295000551FF2CF4695F1DF08C016161706180668
:10296000991FF1CF86957105610508940895E89443
:10297000BB2766277727CB0197F90895AA1BBB1BB6
:1029800051E107C0AA1FBB1FA617B70710F0A61B6F
:10299000B70B881F991F5A95A9F780959095BC0190
:1029A000CD01089597FB072E16F4009407D077FD0C
:1029B00009D00E94BE1407FC05D03EF49095819585
:1029C0009F4F0895709561957F4F0895A1E21A2E4B
:1029D000AA1BBB1BFD010DC0AA1FBB1FEE1FFF1FC3
:1029E000A217B307E407F50720F0A21BB30BE40B13
:1029F000F50B661F771F881F991F1A9469F760955A
:102A00007095809590959B01AC01BD01CF01089513
:102A1000EE0FFF1F0590F491E02D09945058BB274D
:102A2000AA270E9426150C9484140E94761438F06C
:102A30000E947D1420F039F49F3F19F426F40C9481
:102A400073140EF4E095E7FB0C946D14E92F0E94CB
:102A5000951458F3BA17620773078407950720F097
:102A600079F4A6F50C94B7140EF4E0950B2EBA2F5A
:102A7000A02D0B01B90190010C01CA01A001112484
:102A8000FF27591B99F0593F50F4503E68F11A1630
:102A9000F040A22F232F342F4427585FF3CF4695C1
:102AA00037952795A795F0405395C9F77EF41F16E3
:102AB000BA0B620B730B840BBAF09150A1F0FF0FAD
:102AC000BB1F661F771F881FC2F70EC0BA0F621F99
:102AD000731F841F48F4879577956795B795F79589
:102AE0009E3F08F0B0CF9395880F08F09927EE0F1E
:102AF0009795879508950E9482156894B1110C945A
:102B0000B81408950E949D1488F09F5798F0B92F2B
:102B10009927B751B0F0E1F0660F771F881F991F12
:102B20001AF0BA95C9F714C0B13091F00E94B714E9
:102B3000B1E008950C94B714672F782F8827B85FF9
:102B400039F0B93FCCF3869577956795B395D9F76A
:102B50003EF490958095709561957F4F8F4F9F4F74
:102B600008950E94DC1308F48FEF08950F931F93CC
:102B7000CF93DF938230910510F482E090E0E091F2
:102B8000C203F091C30320E030E0A0E0B0E0309752
:102B900019F1408151810281138148175907C8F00A
:102BA0008417950769F4109731F012960C931297D9
:102BB00013961C9327C00093C2031093C30322C033
:102BC0002115310519F04217530718F49A01BD0178
:102BD000EF01DF01F801DBCF21153105F9F0281BEA
:102BE000390B2430310580F48A819B816115710590
:102BF00021F0FB019383828304C09093C3038093ED
:102C0000C203FE01329644C0FE01E20FF31F81931E
:102C1000919322503109398328833AC02091C0030F
:102C20003091C103232B41F4209110013091110107
:102C30003093C1032093C00320910E0130910F0106
:102C40002115310541F42DB73EB740911201509145
:102C50001301241B350BE091C003F091C103E2176F
:102C6000F307A0F42E1B3F0B2817390778F0AC01AF
:102C70004E5F5F4F2417350748F04E0F5F1F50938C
:102C8000C1034093C0038193919302C0E0E0F0E060
:102C9000CF01DF91CF911F910F910895CF93DF93D3
:102CA000009709F481C0FC01329713821282A0912F
:102CB000C203B091C303109781F420813181820F48
:102CC000931F2091C0033091C1032817390751F594
:102CD000F093C103E093C00367C0ED0120E030E052
:102CE000CE17DF0740F44A815B819E0141155105F3
:102CF000F1F0EA01F5CFD383C28340815181840F83
:102D0000951FC817D90759F488819981840F951F99
:102D10000296918380838A819B819383828321158C
:102D2000310529F4F093C303E093C2033DC0E901E8
:102D3000FB83EA8349915991C40FD51FEC17FD0716
:102D400061F480819181840F951F0296E901998336
:102D50008883828193819B838A83E0E0F0E01296EE
:102D60008D919C911397009719F0FD01DC01F7CF2D
:102D70008D919C9111979D012E5F3F4F820F931F64
:102D80002091C0033091C1032817390769F43097A7
:102D900029F41092C3031092C20302C0138212825C
:102DA000B093C103A093C003DF91CF91089581E058
:102DB00090E0F8940C94DC1610E0C8E7D0E004C072
:102DC000FE010E9408152196C937D107C9F7F8946A
:022DD000FFCF33
:102DD20007050700000000000300030003000000D5
:102DE200C40320005E00BC00770100004000140014
:102DF200540000000000CC018D07A3001902D4008A
:102E0200B200C6000000000077014A01A7011E01BE
:102E120042012E011F01000000007F028D07A70161
:102E2200A60144743A002E0020546D3A0054656D98
:102E3200703A000143200044656661756C74004E6F
:102E42006967687400536D617274204171756172B3
:102E520069756D0056657273696F6E20302E342E5F
:102E6200340052454400475245454E00424C5545B8
:022E720000005E
:00000001FF
